:020000040800F2
:10000000C80F00206102000815330008E52B000826
:100010000D300008A5150008AD41000800000000E3
:10002000000000000000000000000000693E000821
:10003000A9150008000000009D3B0008F93E0008DB
:100040007B0200087B0200087B0200087B0200089C
:100050007B0200087B0200087B0200087B0200088C
:100060007B0200087B0200087B0200087B0200087C
:100070007B0200087B0200087B0200087B0200086C
:100080007B0200087B0200087B0200087B0200085C
:100090007B0200087B0200087B0200087B0200084C
:1000A0007B0200087B0200087B0200087B0200083C
:1000B000693F00087B0200087B0200087B02000801
:1000C0007B0200087B0200087B0200087B0200081C
:1000D0007B020008414000087B0200084D400008F8
:1000E0007B0200087B0200087B02000800F002F897
:1000F00000F0A6F814A696E8000CB244B344DA4522
:1001000001D100F09DF8BAE80F000FA696E8300084
:10011000A5EB040504EB0607AAEB0704A7F101070A
:100120004FEA15154FEA3414A4F10104AC4201D38F
:1001300000F086F813F0010F18BFFB1A43F001031B
:1001400000F001F8DBE71847905B0000B05B0000AF
:10015000103A24BF78C878C1FAD8520724BF30C8F3
:1001600030C144BF04680C60704700007047000055
:100170000023002400250026103A28BF78C1FBD8B0
:10018000520728BF30C148BF0B6070476E2900F08E
:10019000E781702900F02983662905F05A806529D6
:1001A00005F05780672905F05480612905F05380D8
:1001B00003681B0A28BF41F08001692900F094817F
:1001C000642900F09181752900F08E816F2900F07B
:1001D000B782782900F0F582E92900F05182E429FC
:1001E00000F04E82F52900F04B82EF2900F0B48236
:1001F000F82900F0F4820368DB0928BF41F0800190
:10020000632901F02780732901F02C80E32901F094
:100210003780F32901F03C80002070471FB501F0C2
:1002200091F804000020002104F04CFC401C6060A8
:100230000020002104F030FCE0601FBD10B510BDAF
:1002400001F052F81146FFF7E9FF03F0D9FF01F082
:100250002FF903B4FFF7F2FF03BC01F033F90000FC
:100260000948804709480047FEE7FEE7FEE7FEE74A
:10027000FEE7FEE7FEE7FEE7FEE7FEE70448054986
:10028000054A064B70470000653F0008ED00000876
:10029000C8090020C80F0020C80B0020C80B002090
:1002A0001CB50C46064B7B4469460090204600F086
:1002B00070F904460020694600F07EF920461CBD16
:1002C0000F030000032A40F2308010F0030C00F00E
:1002D000158011F8013BBCF1020F624498BF11F880
:1002E00001CB00F8013B38BF11F8013BA2F1040239
:1002F00098BF00F801CB38BF00F8013B11F00303B1
:1003000000F04283083AC0F0088051F8043B083AF4
:1003100051F804CBA0E80810F5E7121D5CBF51F8B6
:10032000043B40F8043BAFF30080D20724BF11F830
:10033000013B11F801CB48BF11F8012B24BF00F895
:10034000013B00F801CB48BF00F8012B70474FF08C
:10035000000200B5134694469646203922BFA0E815
:100360000C50A0E80C50B1F12001BFF4F7AF090721
:1003700028BFA0E80C5048BF0CC05DF804EB890012
:1003800028BF40F8042B08BF704748BF20F8022B55
:1003900011F0804F18BF00F8012B70474FF0013C5F
:1003A00050F8042B51F8043B9A4221D1A2EB0C03E4
:1003B000934313EACC1317D150F8042B51F8043BA4
:1003C0009A4215D1A2EB0C03934313EACC130BD141
:1003D00050F8042B51F8043B9A4209D1A2EB0C03CC
:1003E000934313EACC13DBD04FF00000704700BFFB
:1003F000D01A01BAB1FA81F101F0180122FA01F024
:10040000CB40DBB2C0B2C01AC1F120012CFA01F31B
:10041000D11A914311EAC311E6D170477047704772
:10042000704770B5044685690068C10601D530265D
:1004300000E02026C00707D070BDD4E90121304676
:100440009047206A401C20626D1EF6D570BD70B5C5
:10045000044685690078C00707D170BDD4E9012141
:1004600020209047206A401C20626D1EF6D570BD8A
:1004700009684A0501D540B27047C905FCD500B2EC
:10048000704709684A0501D5C0B27047C905FCD557
:1004900080B2704770B50C460546012A05D0287811
:1004A000800600D5EA69002302E0012305E05B1C19
:1004B000934202D2E05C0028F9D1A869E618C01A7C
:1004C000A861286A184428622846FFF7AAFF04E0BA
:1004D000D5E9012114F8010B9047B442F8D328461E
:1004E000FFF7B5FF70BD00002DE9F041064600247E
:1004F00010687529314616A510D0FFF7B9FF0028FE
:1005000002DA404213A507E031688A0701D512A537
:1005100002E0490704D511A5012401E0FFF7B1FF6E
:1005200000210A2206F1240709E0B0FBF2FCB0FB2F
:10053000F2F302FB1C00303078541846491C0028A6
:10054000F3D123462A463046BDE8F04100F093BA85
:10055000000000002D0000002B0000002000000023
:1005600011680268006A530501D508700AE0D305D6
:1005700001D5088006E0130603D5C217C1E90002C1
:1005800000E008600120704701694A1C0261087898
:10059000704700B58FB0CDE90131002105910549C3
:1005A0007944CDE903101146684600F029F90FB0EF
:1005B00000BD0000E5FFFFFF0A6802F8010B0A60BA
:1005C000704700002DE9FF5F15468A460446DFF8B4
:1005D000AC80F8440027D8E900103E46CDE9001071
:1005E00010E03AF816106A4602A800F055FE411CC9
:1005F00007D02178890603D5E269391891420DD8D0
:100600000744761C2078800602D5E069B84205DDF3
:10061000AE42E6DB3AF816000028E2D1A069C01B22
:10062000A0612046FFF7FDFED8E90010CDE90010DB
:10063000002017E03AF818106A4602A800F02CFED5
:10064000B0F1FF3F81460BD000250DF1080B05E00E
:10065000D4E901211BF8050090476D1C4D45F7D3E7
:1006600008F10100B0428046E4DB206A3844206291
:100670002046FFF7ECFEBDE8FF9F0000864C00001F
:100680002DE9F0418046D21D22F007020025D2E973
:100690000002F52915A614D0011E72F1000106DA38
:1006A0000023D0EB030063EB020211A608E0D8F8A8
:1006B00000108B0701D50FA602E0490701D50EA651
:1006C00001251146002408F1240704E000F08EF90A
:1006D00030323A55641C50EA0102F7D12B463246BB
:1006E00021464046BDE8F04100F0C5B900000000D9
:1006F0002D0000002B0000002000000030B400217D
:1007000000F1240408E002F00705D208303542EA7F
:100710004372DB086554491C52EA0305F3D10468AF
:10072000002310A2250708D504F020040C4304D0B0
:10073000C46901230CA2641EC46130BC00F09BB9E3
:1007400010B5044621461068FFF79BFE024620467E
:10075000BDE810400023D1E7D21D22F00701D1E906
:100760000023CBE70000000030000000F0B40D468D
:100770000188090502D5214C7C4402E01F4C7C44D1
:100780000E34002100F1240608E002F00F071209E0
:10079000E75D42EA03721B097754491C52EA0307DA
:1007A000F3D102780023120704D5702D06D009B1C9
:1007B000022311342246F0BC00F05DB9012310344D
:1007C000F8E770B504460D4621461068FFF759FE5C
:1007D000024629462046BDE870400023C6E7D21DE8
:1007E00022F00703D3E90023C0E70368126843F04F
:1007F000200303600823C3610023B7E7E84A000031
:100800002DE9F05F894604464FF0000ADFF874B125
:10081000FB44C0F820A02046E1688847002874D037
:10082000252806D0D4E901219047206A401C206287
:10083000F1E700265F462046E16888472028054604
:1008400007DB312D05D2781910F8200C08B10643CA
:10085000F1E7B00701D526F00406C4F81CA0002774
:10086000C4F818A02A2D09D0284604F00DF938B391
:1008700004EB8708303DC8F8185019E059F8041BFC
:10088000204604EB87029161E1688847012F054605
:1008900018D1E069002820DA26F020061DE0D8F8FB
:1008A000180000EB800005EB40003038C8F8180055
:1008B0002046E1688847054604F0E6F80028EED1B6
:1008C000012F0AD02E2D08D12046E16888477F1CD1
:1008D0000546022F46F02006C4DBA069002803DA93
:1008E000404246F00106A061F00701D026F0100654
:1008F0006C2D0BD0682D09D04C2D39D06A2D35D0F8
:10090000742D35D07A2D33D016E038E0E1682F46CB
:1009100020468847B842054609D16C2F26D04FF4AF
:100920008060E168064320468847054604E06C2F56
:100930001AD04FF4807006430DB3A5F14100192879
:1009400002D8203546F400664A46294620462660ED
:100950004E46FFF71BFC80B101280BD0F61D26F098
:10096000070000F1080956E74020E4E78020D8E7B7
:100970000020D6E706F104094DE7284652E7206A31
:10098000BDE8F09F784A000010B5203AC0F00B8017
:10099000B1E81850A0E81850B1E81850A0E8185075
:1009A000203ABFF4F5AF5FEA027C24BFB1E81850EB
:1009B000A0E8185044BF18C918C0BDE810405FEA4D
:1009C000827C24BF51F8043B40F8043B08BF7047C9
:1009D000D20728BF31F8023B48BF11F8012B28BFCE
:1009E00020F8023B48BF00F8012B704730B5B0F14A
:1009F0000A0271F100034FEA900E4EEA817EB0EBDD
:100A00000E0061EB91014FEA101E4EEA017E10EBE1
:100A10000E0041EB11114FEA102E4EEA016E10EB61
:100A20000E0041EB11214FEA104E4EEA014E10EB41
:100A30000E0041EB1141401841F100014FEAD00096
:100A400040EA41704FEAD1014FEA810444EA9074D0
:100A500010EB800544EB01046D1944EB0404521BB8
:100A6000A3414FF0000348BF0A3200D530BD401CFF
:100A700041F1000130BD2DE9F0470D4699469246FF
:100A8000044600F124080168880604D5E06921F0D5
:100A90001001216000E00120A84201DD471B00E0B9
:100AA0000027A1697A1902EB0900081AA0612078D1
:100AB000C00602D42046FFF7B4FC002608E0D4E9C3
:100AC00001211AF806009047206A401C761C20621B
:100AD0004E45F4DB2078C0060AD52046FFF7A1FC7E
:100AE00006E0D4E9012130209047206A401C2062B2
:100AF000381EA7F10107F4DC07E0D4E9012118F85A
:100B000005009047206A401C2062281EA5F10105BF
:100B1000F3DC2046FFF79BFC2078000602D502207C
:100B2000BDE8F0870120FBE72DE9FF4F0C461E468C
:100B30004FF0FF378BB0D2E90001DDF860800A90FA
:100B40008A46C1F30A5505B93D46002108464FF0D3
:100B50000000BAF1000F00F4400005DA00EB80005D
:100B60004FF4400101EA50004FEA9059B9F1010FEA
:100B700000DDB9460A9850EA4A000ED044F61050FB
:100B8000A5F2FF3545432F14B8F1000F1ED0754272
:100B9000291E1EDDC9F100021CE0B8F1010F4FF063
:100BA000000001D0302103E0F24305E02154401C55
:100BB000B042FBDB30460022002121540B99C1F8E2
:100BC0000880C1E900200FB0BDE8F08FBD1B6D1C8F
:100BD000DEE74A4600DA694206A800F0F7FB06ABFA
:100BE00093E8070003AB83E8070050460A9903F037
:100BF0006EFB8DE80700A0F500501F3800900398A9
:100C0000002D0ADD42F21F014A460844002303A9D1
:100C10000390684603F0D8FD09E0A0F500504A466D
:100C20001F38002303A90390684603F0E2FD8DE816
:100C300007000004000C03D04FF0FF30410800E033
:100C40001046B8F1000F03D00022009215461EE0B6
:100C5000751E05D4FFF7CAFE303262556D1EF9D5F8
:100C6000B3460122084302D000227F1C04E0207812
:100C7000302801D100227F1E002A099784D01DE070
:100C8000112D07DAFFF7B2FE303262556D1C50EAC3
:100C90000102F5D1084302D00098C8B10EE000214E
:100CA000681E05E0235C625C63542254401E491CAC
:100CB0008142F7DBAB46A81B401E0990002004F8D8
:100CC0000B000B98099AC0F80880C0E9002B7AE75E
:100CD00011264FF0000857E72DE9F04F88460446EB
:100CE000D21D22F0070191B0D1E90001CDE90A013E
:100CF00003F0B6FE02460B98C00F01D02D2007E08E
:100D00002068810701D52B2002E0202101EAC000E4
:100D1000032A099001D0072A05DB034641462046F5
:100D200000F014FB0BE12078800601D5E06900E0BB
:100D30000620B8F1650F814606D0B8F1660F18D0CD
:100D4000B8F1670F70D131E00020B9F1110F0090B8
:100D500001DB112301E009F101030AAA01A90CA892
:100D6000FFF7E2FEDDE90C70002609F1010583467C
:100D700047E001204B4600904FF000470AAA01A926
:100D80000CA8FFF7D1FEDDE90DB00C995D460026F9
:100D900010B909F101000D18B9EB050003D4C0F139
:100DA000FF3609F10105A5EB09002BE0B9F1010FB0
:100DB00001DA4FF001090020B9F1110F0090484607
:100DC00001DD112300E003460AAA01A90CA8FFF7E0
:100DD000ABFEDDE90C704D46002683462078000707
:100DE0000AD4AB4500DA5D4601A8012D04DD4119A6
:100DF00011F8011C302907D04F4502DA17F1040F12
:100E000004DA012082460FE06D1EEEE7002F02DCBF
:100E1000ED1B3E4403E0781CA84200DD7D1CB81B9E
:100E200000F1010A4FF000472078000703D4AA45DB
:100E300001DB4FF0FF3A0021B7F1004F0DF14308FD
:100E40008DF8431024D002202B23002F01DA7F429B
:100E50002D230A21021EA0F1010000DC5FB197FBE7
:100E6000F1FC97FBF1F201FB1C7C17460CF1300CF6
:100E700008F801CDEEE7A8F101000370218809050B
:100E800001D5452100E06521A0F1010800F8011C11
:100E900009980FA9A1EB0807FF1D00B10120411916
:100EA00001EBEA70A1693844081A401EA06120785D
:100EB000C00602D42046FFF7B4FA099828B1D4E955
:100EC00001219047206A401C20622078C00622D56C
:100ED0002046FFF7A6FA1EE0002E04DBB34502DD34
:100EE00001A8805D00E03020D4E901219047206A0C
:100EF000401C2062761CAAF101005FEA000A0AD1B8
:100F000000F020FAC0680168405CD4E901219047F4
:100F1000206A401C2062281EA5F10105DCDC07E0E8
:100F2000D4E9012118F8010B9047206A401C206287
:100F3000381EA7F10107F3DC2046FFF788FA0320EB
:100F400011B041E62DE9F04F04460D46D21D22F0C6
:100F5000070089B0D0E900974846394603F080FD84
:100F60000246F80F01D02D2307E02068810701D544
:100F70002B2302E0202101EAC0038DF820300BB1C1
:100F8000012000E00020032A824601D0072A04DB6A
:100F90002946204600F0DAF93FE12078800601D4A6
:100FA0000D2500E0E569C7F30A560D2D49DA002149
:100FB0004FEA175B08464FF00000002F00F4400096
:100FC00007DA00EB80004FF4400100EBD07001EA3B
:100FD00060008115012901DD4FF0FF3100224FEA49
:100FE000850CBCF1180F06D31346ACF118004FF076
:100FF0008052C24003E04FF4801323FA0CF30CF14B
:101000000C0CBCF1200F04D3ACF1200C09FA0CF04D
:1010100001E007FA0CF000294FF0004801DD18B993
:101020000FE00ED140450CD319EB02095F4121B905
:10103000404502D19F4329EA0209BBEB175F00D06C
:10104000761C2088000502D57B48784402E07A4867
:101050007844193808AA302302F80A30037C0AF1D0
:101060000101002E0AF1020A53546A4602DC4FF0D5
:10107000300101E04FF031014FF001088DF8001010
:1010800002D0A6F2FF3603E059EA470100D06B4ECA
:10109000002D02DC2178090704D54FF002082E212B
:1010A0008DF80110C44600210BE0C7F303433F0154
:1010B000C35C491C6D1E02F80830052908F10108BF
:1010C00001DA002DF1DC00210CE000EB1973491C62
:1010D0001B786D1E082902F808304FEA091908F13B
:1010E000010801DA002DF0DC21688B0602D516E03C
:1010F000A8F10108E04505DD02EB080313F8013C07
:10110000302BF5D0B8F1000F09DD02EB080313F81E
:10111000013C2E2B03D1090701D4A8F10108002DB1
:1011200005DD3E2102F808106D1E08F10108407C23
:10113000002E02F8080008F1010804DA2D2076429A
:1011400002F8080002E02B2002F808000A214FF400
:101150007A70864208F101080BDB96FBF0F330331E
:1011600002F8083096FBF0F308F1010800FB136663
:1011700001E0642E0CDB642096FBF0F3303302F8C0
:10118000083096FBF0F308F1010800FB136601E05C
:101190000A2E06DB96FBF1F0303002F8080008F169
:1011A000010896FBF1F001FB1060303002F80800F6
:1011B000A16908F1010808EB050202EB0A00081A10
:1011C000A0612078C00602D42046FFF72AF9216AE0
:1011D00008AE01EB0A00206204E0D4E9012116F810
:1011E000010B9047BAF1010AF7D22078C00602D568
:1011F0002046FFF716F96E4609E016F8010B3E2867
:101200000FD0D4E901219047206A401C2062B8F138
:101210000108F2D22046FFF71AF909B00320BDE811
:10122000F08F206A2844206203E0D4E901213020B5
:1012300090476D1EEBD3F8E76242000002FCFFFF0F
:1012400010B5436913B1AFF3008001E0FFF722F955
:10125000012010BD127800F124010A7000224A70AA
:101260000122EDE711684FF0FF32E9E710B543695D
:1012700013B1AFF3008001E0FFF7A4F9012010BD26
:10128000128800F1240182840022C2840122EDE749
:1012900011684FF0FF32E9E72DE9F04116460C46A0
:1012A000054600F047F8036893F80101012807D0CC
:1012B000FF2C12D8185D80B101202C70BDE8F081A0
:1012C000D3F807013246214603F20713C718284610
:1012D000BC46BDE8F041002360474FF0FF30EDE72A
:1012E00000487047180000207546FFF7F9FFAE462A
:1012F00005006946534620F00700854618B020B522
:10130000FEF7BCFFBDE820404FF000064FF000079D
:101310004FF000084FF0000BAC46ACE8C009ACE859
:10132000C009ACE8C009ACE8C00921F007018D464E
:101330007047000010B500F005F8001D10BD00BF9B
:101340008537000000487047380000202DE9F04143
:101350001F46044603260168072A01F4006004DBE7
:1013600008B116A505E016A503E008B115A500E033
:1013700015A521F010002060A069C01EA0610FB16A
:10138000401EA0612046FFF74CF84FB1D4E901217F
:1013900038469047206A401C2062C01C206206E04C
:1013A000206AFAE7D4E9012115F8010B9047761E6F
:1013B000F8D22046FFF74BF8BDE8F0814E414E00D1
:1013C0006E616E00494E4600696E66002DE9F04779
:1013D000814616468AB0354878440DC88DE80D0020
:1013E00032487844801C03AC0DC884E80D0041F6F7
:1013F0009B300844372190FBF1F290FBF1F5A5F109
:10140000800501FB12041B3C02D56442012000E070
:101410000020DFF898A080460027FA44AAF1BE0A0F
:101420000EE0E0070AD03246684607EB4701012389
:101430000AEB810103F0DDF98DE8070064107F1CE1
:10144000002CEED1194F7F44AE3F19E0E80715D0CC
:1014500007EB04100DF1180A90E80E008AE80E0060
:10146000C068F04201D1981908903246012306A9BC
:1014700003A803F0BEF903AB83E807006D10641CFA
:10148000002DE3D14FF0010332466946B8F1000F59
:1014900003A802D003F098F901E003F0AAF9C9E922
:1014A0000001C9F808200AB0BDE8F087643F0000D9
:1014B00010B50446AFF300802046BDE81040FEF7AB
:1014C000C8BE000001491820ABBEFEE7260002009E
:1014D0007047000080B501F0E9FE01F099FD01F0D0
:1014E00077FE01F0A1FEBDE8804002F073B9000074
:1014F0002DE9F04F81B040F2A042C2F2000202EBAF
:10150000800302EB810940F2B042C2F2000240F2D5
:10151000080802EB800A02EB810B0024C2F20008EB
:10152000009300BF204603F0BFFC4FF07A5103F058
:101530004FFD009905460E68D9F80010084631465F
:1015400003F012FE0146284603F042FD314603F047
:1015500001FBDAF80060DBF8001007460846314668
:1015600003F002FE0146284603F032FD314603F047
:10157000F1FAD8F800100546084601213A466423DE
:1015800001F000FDD8F8000002212A46642301F092
:10159000F9FCC82002F096FC0134052CC2D101B040
:1015A000BDE8F08FFEE7000070470000EFF3108009
:1015B00072B600BFFEE70000014690F82100022845
:1015C00013D10868D1E90FC3026822F00E0202604D
:1015D000026822F001020260012000FA03F2CCF856
:1015E000042081F82100002002E00420886301200B
:1015F000002281F82020704790F82110022923D181
:10160000026840F2040C1168C4F2020C21F00E01D1
:10161000116013682F21C4F202018A4223F00103F2
:10162000136015DD3023C4F202039A421CD0442318
:10163000C4F202039A421AD05823C4F202039A4217
:101640001AD14FF480331FE00421816301207047D9
:101650000823C4F202039A420CD01C23C4F20203F2
:101660009A4209D110230FE04FF480730CE04FF43D
:10167000805309E0012307E00CF168014FF080730B
:101680008A4208BF4FF480130121CCF8003080F863
:101690002110416B0022002980F8202004BF002087
:1016A000704780B58847002080BD00002DE9F04FCD
:1016B00082B00E68002E00F0F78041F20042C4F2C2
:1016C0000102042340F2004E904208BF03234FF66C
:1016D000FF7CC4F2010E009300240123C1F2100C20
:1016E0004FF0000A4FF000094AE041F20002C4F254
:1016F0000102009F904208BF022704F00C030F2252
:101700009A402BEA020207FA03F34FEA9A051A43BA
:1017100046F825204E6840F20C45F202DEF808201B
:1017200054BF22EA080242EA0802C4F20105CEF8D8
:1017300008202A68B30254BF22EA080242EA0802DB
:101740002A60B303DEF8042054BF22EA080242EA0A
:101750000802F303CEF80420DEF800204FF0010366
:1017600054BF22EA080242EA0802CEF800200E68BE
:101770000AF1010A36FA0AF204F1040400F0948036
:1017800003FA0AFB16EA0B08F1D04E68664511DC35
:10179000122E51D8DFE806F0340A49465050505016
:1017A000505050505050505050424D00D1F80C9075
:1017B00042E000BF4FF6FF72C1F2210296420FDCF9
:1017C0000022C1F2110296421AD00022C1F2120286
:1017D000964215D00022C1F22102964210D02BE091
:1017E0000022C1F2220296420AD00022C1F2310246
:1017F000964205D00022C1F2320296421CD100BFAF
:101800008A6842B1012A14BFC0F814B0C0F810B001
:101810004FF0080910E04FF004090DE0CA6802F12A
:10182000040909E04FF0000906E0CA6802F108095E
:1018300002E0CA6802F10C0902462646B8F5807F2C
:1018400024BF0432203E17680F25B54027EA05055E
:1018500009FA06F635431560CA79D2067FF587AFD7
:1018600041F21803C4F202031A68AEF57E7642F024
:1018700001021A601A6802F001020192019A2AF02C
:10188000030256F802B040F60002C4F20102904290
:1018900008D040F60042C4F2010290427FF425AF26
:1018A00001272AE7002728E702B0BDE8F08F0000F3
:1018B0008068084018BF012070470000002A08BF58
:1018C000090401617047000040F6C010C2F2000038
:1018D0000068704740F20C0040F6C011C2F20000F0
:1018E000C2F2000100780A681044086070470000E6
:1018F00080B542F20000C4F20200016841F010011C
:101900000160032000F090F80F2000F005F800F0CF
:101910002BF8002080BD0000B0B540F20C02C2F2EE
:10192000000240F204011278C2F200014FF47A730F
:101930000968B3FBF2F20446B1FBF2F1084600F08D
:1019400021FB0F2C4FF001050CD858B94FF0FF3098
:1019500021460022002500F03BF840F21000C2F2C0
:10196000000004602846B0BD82B041F21800C4F205
:1019700002000168022241F001010160016801F0EA
:10198000010101910199416841F080514160406835
:1019900000F08050009000980420C4F2010001681B
:1019A00062F31A61016002B070470000002848BF6E
:1019B000704700F01F01012202FA01F11C2202EA25
:1019C000D0004EF20012CEF20002815070470000AB
:1019D00010B54EF60C5CCEF2000CDCF80030C3F310
:1019E000022E8EF00704042C28BF0424BEF103034A
:1019F0004FF0FF3E0EFA04F438BF0023A143994094
:101A00000EFA03F39A43114300F1604200F00F0312
:101A1000090102F56442043B6344002848BF03F116
:101A20000C02117010BD00004EF60C51CEF20001F8
:101A30000A684FF6FF031A4060F30A2242F0806002
:101A400040F0FD7008607047002804BF0120704717
:101A50002DE9F04381B042F20008C4F202080446C6
:101A6000D8F800000D4600F0070088420CD2D8F8E4
:101A7000000020F007002843C8F80000D8F8000054
:101A800000F00700A8426BD1206841F204098107E9
:101A9000C4F2020917D5410705D5D9F8001041F461
:101AA000E061C9F80010010705D5D9F8001041F42C
:101AB0006051C9F80010D9F80010A26821F0F001B7
:101AC0001143C9F80010C00741D1D8F8000000F058
:101AD0000700A8420CD9D8F8000020F007002843DE
:101AE000C8F80000D8F8000000F00700A84237D17D
:101AF0002068410707D5D9F80010E26821F4E061B9
:101B00001143C9F80010000708D5D9F80000216971
:101B100020F4605040EAC100C9F80000D9F8002064
:101B200002F00C00082841F20020C0F27A0049D1EE
:101B300045F69F43C2F38341C0F60003595CD203CC
:101B400034D440F60010C0F23D0048433AE06068EB
:101B500059F8041C022807D0012824D1890305D490
:101B6000012001B0BDE8F0838901F9D5D9F8001052
:101B700021F003010843C9F80000FFF7A5FE06465F
:101B800041F28837D9F80000616800F00C00B0EB32
:101B9000810F9AD0FFF798FE801BB842F2D903203C
:101BA00001B0BDE8F0838907DAD5DFE7D9F8002076
:101BB00045F27033C2F34042C0F600039A5C4843DA
:101BC000B0FBF2F0D9F8001045F25832C1F303111E
:101BD000C0F60002515C40F2040220FA01F140F22A
:101BE0001000C2F200000068C2F200021160FFF7AC
:101BF00093FE002001B0BDE8F083000040F2040035
:101C000041F20401C2F20000C4F202010068096856
:101C100045F26832C1F30221C0F60002515CC840AF
:101C20007047000040F2040041F20401C2F20000DB
:101C3000C4F202010068096845F26832C1F3C221AA
:101C4000C0F60002515CC84070470000002804BF85
:101C5000012070472DE9F04182B00446007841F23E
:101C60000006C007C4F2020647D0706800F00C00FE
:101C7000042808D1306880033FD56068E8BB0120A4
:101C800002B0BDE8F081706800F00C00082802D1B5
:101C90007068C003EED4656830682DB1B5F5A02F2B
:101CA00009D0B5F5803F0AD020F48030306030682C
:101CB00020F4802005E040F480203060306840F45B
:101CC00080303060FFF700FE002D054612D000BFC7
:101CD0003068800311D4FFF7F7FD401B6428F7D963
:101CE00016E100BFFFF7F0FD401B64284FF0030032
:101CF00000F2D88030688003F4D42078800719D5AA
:101D0000706810F00C0F07D0706800F00C00082805
:101D100027D17068C00324D43068800703D52069B8
:101D2000012840F0A6803068616920F0F80040EAA0
:101D3000C1003060207800074ED5A06938B300207C
:101D4000C4F242200121C0F88014FFF7BDFD054612
:101D5000706A80072DD4FFF7B7FD401B0228F7D922
:101D6000D6E02069002840F20000C4F2422000F0D2
:101D7000A88001210160FFF7A7FD054630688007B4
:101D8000D1D4FFF7A1FD401B0228F7D9C0E0002005
:101D9000C4F242200021C0F88014FFF795FD0546EB
:101DA000706A800718D5FFF78FFD401B0228F7D90E
:101DB000AEE040F20400C2F20000006844F6D351E5
:101DC000C1F26201A0FB0101480A019000BF019825
:101DD000411E00280191F9D12078400717D4E56908
:101DE0008DB1706800F00C00082846D1012D40D05C
:101DF0007068216A00F480328A423AD1616A00F444
:101E00007010884235D1002002B0BDE8F081F06941
:101E10005FEAC00808D4F06940F08050F061F069D2
:101E200000F080500090009847F20007C4F20007CD
:101E30003868C0050FD4386840F480703860FFF708
:101E400043FD05463868C00505D4FFF73DFD401B3E
:101E50006428F7D95CE0E568306A1DB1052D41D0F2
:101E6000012D43D020F001003062306A20F00400E0
:101E70003EE0012002B0BDE8F0810027C4F2422715
:101E800000203866FFF720FD022D05460ED100BF69
:101E90003068800153D5FFF717FD401B02284FF033
:101EA0000300F5D902B0BDE8F08100BF30688001C1
:101EB000A9D5FFF709FD401B02284FF00300F5D913
:101EC000F0E700210160FFF7FFFC0546306880075E
:101ED0007FF530AFFFF7F8FC401B02284FF00300FE
:101EE000F4D9DFE740F004003062306A40F00100CE
:101EF0003062FFF7E9FC002D054641F2883712D029
:101F0000306A800712D4FFF7DFFC401BB842F7D9D4
:101F1000032002B0BDE8F081FFF7D6FC401BB842B9
:101F20004FF00300BED8306A8007F5D4B8F1000F37
:101F30003FF555AFF06920F08050F0614FE7206A1F
:101F4000B0F5803F05D17168A26821F400311143DA
:101F500071607168626A21F4741111430843706002
:101F600001203866FFF7B0FC044600BF30688001EE
:101F70003FF549AFFFF7A8FC001B02284FF0030014
:101F8000F4D98FE7411E0020B0EB116F1CBF012078
:101F900070474EF21002CEF2000251604EF623510D
:101FA000CEF20001F0230B700721906011607047A2
:101FB000704700007047000090F83C20012A4FF065
:101FC000020234D010B5012380F83C3080F83D2067
:101FD0000268D2F804E0D2F808C00C682EF0700352
:101FE000234340F2FF74C4F20004A242536005DCB4
:101FF000B2F1804F0ED040F2004307E042F60043BA
:10200000C4F201039A4205D040F60003C4F2000373
:102010009A4204D149682CF0800319439160012150
:10202000002280F83D1080F83C20BDE810401046AA
:1020300070470000002804BF0120704710B590F8D9
:102040003D1031B9002180F83C10044600F066F8DC
:102050002046022180F83D10016840F2FF740B68B1
:10206000C4F2000442F6004CA142C4F2010C05DCAB
:10207000B1F1804F0AD040F2004203E0614505D043
:1020800040F60002C4F20002914203D1826823F0BC
:1020900070031343A14205DCB1F1804F0AD040F236
:1020A000004203E0614505D040F60002C4F20002A0
:1020B000914203D1026923F440731343846923F0EE
:1020C0008002D0F804E0C368224361450A60CB6215
:1020D000C1F828E002D14269CCF8302001224A61DF
:1020E0000B69DB0703D00B6923F001030B6180F858
:1020F000462080F83E2080F83F2080F8402080F87D
:10210000412080F8422080F8432080F8442080F865
:10211000452080F83D20002010BD00000068B0F18F
:10212000804F18BF704780B582B041F21C00C4F2E6
:1021300002000168002241F00101016000680021F5
:1021400000F00100019001981C20FFF741FC1C20C9
:1021500002B0BDE88040FFF729BC000090F83D10B8
:1021600001291CBF01207047022180F83D10006842
:1021700040F2FF72C168C4F20002904241F00101D6
:10218000C16005DCB0F1804F0ED040F2004107E0A5
:1021900042F60041C4F20101884205D040F6000138
:1021A000C4F20001884206D1816801F007010629C6
:1021B00004BF00207047016841F001010160002068
:1021C0007047000090F83C20012A4FF002026ED0C8
:1021D00080B5012380F83C3080F83D20D0F800C065
:1021E0004FF67772DCF8083023EA0202CCF80820B8
:1021F0000B684F2B28DC1F2B44DD202B45D0302BC8
:1022000043D0402B40F0AC80D1F804E0C968DCF842
:102210002030DCF8202022F00102CCF82020DCF86D
:10222000182022F0F00242EA011123F00A0242EAE9
:102230000E02CCF81810CCF82020DCF8081041F081
:10224000470121F0300127E06F2B32DDB3F5005F4D
:1022500073D0B3F5805F21D0702B40F08180D1E93D
:1022600001E3C968DCF8082043EA0E0322F47F4248
:1022700043EA01211143CCF80810DCF8081041F0C2
:10228000770109E00BB1102B6AD1DCF8081021F0BE
:102290007001194341F00701CCF808100022012118
:1022A00080F83D10002180F83C10BDE880401046C9
:1022B0007047502B21D0602B52D1D1F804E0C9686F
:1022C000DCF82030DCF8202022F01002CCF82020AE
:1022D000DCF8182022F4704242EA013123F0A00217
:1022E00042EA0E12CCF81810CCF82020DCF80810C6
:1022F00041F0670121F01001CEE7D1F804E0C96890
:10230000DCF82030DCF8202022F00102CCF820207C
:10231000DCF8182022F0F00242EA011123F00A0250
:1023200042EA0E02CCF81810CCF82020DCF8081095
:1023300041F0570121F02001AEE7D1E901E3C9687E
:10234000DCF8082043EA0E0322F47F4243EA01212D
:102350001143CCF80810DCF8081041F480419BE7E9
:1023600001229CE77047000070B504460068C5680C
:102370000669B10716D515F0020113D06FF00201FE
:102380000161012121778069800703D02046FFF792
:10239000E9FF05E0204600F08DF8204600F08CF8BB
:1023A00000202077700718D515F0040015D020689C
:1023B0006FF00401016102212177806910F4407FF0
:1023C00003D02046FFF7CEFF05E0204600F072F86C
:1023D000204600F071F800202077300717D515F05F
:1023E000080014D020686FF00801016104212177F2
:1023F000C069800703D02046FFF7B4FF05E0204600
:1024000000F058F8204600F057F800202077F0063A
:1024100018D515F0100015D020686FF0100101617B
:1024200008212177C06910F4407F03D02046FFF7D0
:1024300099FF05E0204600F03DF8204600F03CF80A
:1024400000202077F00718BF15F0010002D13006F8
:1024500009D412E020686FF001010161204600F00C
:102460002DF8300609D515F0800006D020686FF0F1
:10247000800101612046FFF79BFD700609D515F02C
:10248000400006D020686FF040010161204600F056
:1024900017F8B00658BF70BD15F0200008D02168AD
:1024A0006FF0200220460A61BDE87040FFF782BD50
:1024B00070BD0000704700007047000070470000CA
:1024C000704700007047000070470000B0B582B050
:1024D00001680A68CC684B6902F02F05202D04F0D2
:1024E000200505D125B102B0BDE8B04001F048BDDE
:1024F0005FEA027C1EBF03F0010E04F4907313EB3D
:102500000E0340D1036BD50618D5012B16D114F05C
:10251000100313D0002201920A6801924A680192C6
:10252000019A4969490647D4818DC28DC38D002B1C
:1025300018BF914240F0108102B0B0BD13062AD5F9
:1025400014F0800327D090F84120212AF4D182682A
:10255000B2F5805F03D10269002A00F03081026A7F
:10256000531C036212784A60C28C013A1304C2847D
:10257000E2D1C86820F08000C860C86840F0400020
:10258000C86002B0B0BDD10718BF14F480715CD12F
:10259000510760D466E05206CED514F04002CBD08D
:1025A000CA6822F04002CA60202180F8411002B0BF
:1025B000BDE8B04000F014BBC16B0A68526893B22A
:1025C000002BB9D0858DAB42B6D2C285896920294E
:1025D00034D000BF016851E8031F026821F4807104
:1025E00042E80313002BF5D1016851E8051F02688A
:1025F00021F0010142E80513002BF5D1016851E8F3
:10260000051F026821F0400142E80513002BF5D1B7
:10261000202180F842100021016300BF016851E8C9
:10262000031F026821F0100142E80313002BF5D1CB
:10263000C16B04460846FEF7BFFF204602214163F6
:10264000818DC28D891A89B2AFE0416C41F00101E0
:102650004164510706D5BEF1000F03D0416C41F033
:1026600002014164910706D5BEF1000F03D0416C11
:1026700041F004014164BCF1000F06D55EEA05019A
:1026800003D0416C41F008014164416C00293FF4E2
:1026900053AF910604D51DB1044601F071FC2046EC
:1026A00001684969426C01F0400102F00802891892
:1026B0004BD000BF016851E8031F026821F49071FC
:1026C00042E80313002BF5D1016851E8051F0268A9
:1026D00021F0010142E80513002BF5D1016B01291E
:1026E0000AD100BF016851E8031F026821F0100100
:1026F00042E80313002BF5D1202180F8421000217D
:10270000016301684969490654D500BF016851E871
:10271000051F026821F0400142E80513002BF5D1A6
:10272000C16B002946D043F67572C0F6000204461C
:1027300008464A63FEF760FF00283FF4FDAEE06BF9
:10274000416B02B0BDE8B04008470446FFF7BCFE4D
:102750000020606402B0B0BD891A00BF026852E870
:10276000032F036822F4907243E80325002DF5D16E
:10277000026852E8052F036822F0010243E80525AC
:10278000002DF5D1202280F842200022026300BFF4
:10279000026852E8032F036822F0100243E8032581
:1027A000002DF5D1022289B2426302B0BDE8B040EB
:1027B000FFF788BE02B0BDE8B040FFF785BE026AF1
:1027C00032F8023B6FF35F234B600262CCE60000FD
:1027D000002804BF0120704710B5044690F841005E
:1027E00028B9002084F84000204600F061F8242039
:1027F00084F841002068D4E90212C36823F400532E
:10280000C360036923F440531A430261D4E90423EB
:102810001143C268194341F20C639A431143C160EA
:102820004169A26921F44071114343F60002C4F2E8
:1028300001029042416102D0FFF7E0F901E0FFF7A9
:10284000F1F9D4E90023192148439900B0FBF1F0D4
:1028500048F21F5CC5F2EB1CA0FB0C314FF69C73D9
:102860004909C0F6FF7301FB0300322303EB00109C
:10287000A0FB0C03F02000EA531000EB0110C3F39F
:102880004311084490601069202120F490401061A9
:10289000506920F02A005061D06840F40050D060A8
:1028A0000020606484F8411084F84210606310BD19
:1028B000F0B585B0006844F60001C4F2000188421A
:1028C0004FF00001CDE90311CDE9011126D043F607
:1028D0000001C4F2010188425BD141F21800C4F248
:1028E0000200016840F6000541F480410160016882
:1028F000C4F2010501F4804100910099016825248A
:1029000041F00401016000684FF4806700F00400AA
:10291000009000984FF40070019021E041F21800FF
:10292000C4F202004168272441F4802141604168DB
:102930004FF4006701F4802100910099016841F093
:1029400008010160006800F00800009000984FF452
:102950008060019040F60000C4F2010000F580653F
:1029600002200290032001AE049028463146FEF773
:102970009DFE0020CDE90200284631460197FEF772
:1029800095FE204600210022FFF722F82046FFF79F
:102990000DF805B0F0BD000090F84230202B07D1B3
:1029A00000294FF0010318BF002A04D118467047D0
:1029B0000223184670470023036381622221828527
:1029C000C285436480F84210016921B10168CA6878
:1029D00042F48072CA600068416941F001014161BE
:1029E000C16841F02001C1601846704770B50446C7
:1029F000006844F60006C4F20006B04259D140F225
:102A00009C4540F25850C2F20005C2F2000029462F
:102A10000122FFF7C1FF2A7840F29D4140F20100F8
:102A2000FF2AC2F20001C2F2000002BF00230B70B5
:102A300003700378F12A08BF002B0ED0F22A08BFDA
:102A4000002B0CD0002B4FF0FF3308BF03234FF0B7
:102A5000FF35F32A18BF2B4602E0012300E00223D2
:102A6000DDB2032D037015D0022D07D0012D1AD130
:102A70000B7840F28905C2F2000510E040F28803AD
:102A8000C2F2000301251D700B7840F28D05C2F2E1
:102A9000000504E00B7840F29705C2F200051D44E2
:102AA00001332A700B70FC2A03D100220A70FF2127
:102AB0000170206806F57041884218BF70BD40F271
:102AC000A85440F21050C2F20004C2F200002146A5
:102AD0000122FFF761FF40F2AC50C2F200008068B3
:102AE0002178BDE8704001F0E5B800002DE9F04321
:102AF00081B0044690F84100202809D18846002979
:102B00004FF0010018BF002A06D101B0BDE8F083E4
:102B1000022001B0BDE8F0830020606421201D4642
:102B200084F841001646FEF7CFFEA684E684A1682D
:102B30000646B1F5805F02D1206900284DD0C1461C
:102B40004FF00008E08C40B36F1C0BE0B9F1000FB0
:102B50001AD019F8010B21684860E08C0138E08434
:102B6000E08CD0B1206800680006EFD4002FF9D0C7
:102B7000FEF7AAFE01464FF0030045B3891BA942A8
:102B800025D82068C068EDE738F8020B21686FF39C
:102B90005F2048604FF00009DFE7206800684006CA
:102BA00014D46F1C04E000BF2068006840060DD4F8
:102BB000002FF9D0FEF788FE01464FF0030035B133
:102BC000891BA94203D82068C068EDE700202021B6
:102BD00084F8411001B0BDE8F0834FF00009B1E77F
:102BE00070470000FEE70000B0B5028805460C46BD
:102BF0000846114601F002F9A978204601F09EF836
:102C0000E978204601F09AF82979204601F096F8F3
:102C1000E878022805D00238691D82B2204601F00A
:102C2000B7F8204600F0C6FF01462046BDE8B04098
:102C300001F084B8B0B590B004464FF6FF70032A97
:102C4000ADF804008DF806108DF807208DF80830D7
:102C500005D3149901A8023A0530FDF733FB6168EA
:102C600001A8FFF7C1FF606800F09AFF98B10DF16D
:102C70003F0500BF606801F003F821688DF83F0050
:102C80000846294601223223FFF730FF606800F032
:102C900087FF0028EED110B0B0BD00002DE9F04351
:102CA00085B0002741F21800CDE90377CDE901771F
:102CB000C4F20200016840F6004941F020010160C1
:102CC0000168C4F2010901F0200100910099016836
:102CD000A9F5806541F0040101600168002201F05E
:102CE0000401009100990168302641F0080101605B
:102CF0000068302100F00800009000982846FEF798
:102D0000DDFD48464FF4707101224FF470780124C4
:102D1000FEF7D4FDCDE90164022001AE04902846FF
:102D200031460394FEF7C2FC41F23800CDE90107B9
:102D3000484631460394FEF7B9FC03200490484608
:102D40003146CDE901840397FEF7B0FC05B0BDE83C
:102D5000F083000080B586B040F2C8400021C2F286
:102D600000004FF0804247234FF6FF7CCDE904116D
:102D7000CDE90211CDE90011C0E90023C0E9021C30
:102D800001618161FFF756F9002818BFFEF70EFCBC
:102D90004FF48050029040F2C840C2F2000002A9F5
:102DA000FFF710FA002818BFFEF700FC0020CDE95D
:102DB000000040F2C840C2F200006946FFF7FCF88C
:102DC000002818BFFEF7F2FB06B080BD80B540F2C8
:102DD000105043F60001C2F20000C4F201010023CA
:102DE0004FF00C0C4FF4E13280E80E00C0E90333E1
:102DF000C0E905C3C361FFF7EBFC002808BF80BD35
:102E0000BDE88040FEF7D2BB80B540F2585044F692
:102E10000001C2F20000C4F2000100234FF00C0CCC
:102E20004FF4E13280E80E00C0E90333C0E905C386
:102E3000C361FFF7CDFC002808BF80BDBDE880401E
:102E4000FEF7B4BBF0B581B040F6104545F6B0468C
:102E500045F6C0470024C4F20105C0F60006C0F6DE
:102E6000000700BF686856F8241057F8242008436C
:102E7000686028681043286000F00EF820B901341B
:102E8000042CEFD10020042404EB8001201F18BF84
:102E9000C81E01B0F0BD000010B540F60044C4F2F9
:102EA000010420464FF48051FEF702FD40B928206E
:102EB00001F008F820464FF48051FEF7F9FC40B3CA
:102EC00020460821FEF7F4FC38B9282000F0FAFF6C
:102ED00020460821FEF7ECFCE8B120461021FEF761
:102EE000E7FC38B9282000F0EDFF20461021FEF75E
:102EF000DFFC90B120462021FEF7DAFC38B928200B
:102F000000F0E0FF20462021FEF7D2FC38B100207F
:102F100010BD012010BD022010BD032010BD0420F3
:102F200010BD000070B590B005464FF40E70164607
:102F3000ADF83E000DF13E04284604220223009421
:102F4000FFF778FE01A9284601F086F808B1C043D2
:102F500003E0BDF8090000BA000C80B201F0BCFF2C
:102F60000021C4F2B43102F033F84FF0665102F0A0
:102F70002FF80021CCF2343101F0ECFD306010B0BC
:102F800070BD0000F0B583B00C4600210546C4F2C8
:102F9000343110461E4601F0DDFD4FF08B4102F04A
:102FA00017F80021C4F2B43101F06CFE4FF20001B9
:102FB000C4F27F51074601F03DFE00281CBF4FF2CE
:102FC0000007C4F27F573846002101F048FE002870
:102FD00018BF0027384601F04BFF2A218DF8071053
:102FE000010A8DF80900300A8DF808108DF80A00E2
:102FF0000DF1070728462146072203238DF80B60B1
:103000000097FFF717FE03B0F0BD0000FEE70000D9
:103010002DE9F04140F20000C2F2000000780028E3
:1030200018BFBDE8F081FFF70DFF40F2780440F2D1
:1030300008080928C2F20004C2F200080CD1206876
:103040004FF0804101F086FD0246D8F800000121D2
:1030500064232260FFF796FFFFF7F4FE0B280CD1E4
:1030600020684FF0404101F075FD0246D8F800009D
:10307000012164232260FFF785FFFFF7E3FE40F2A2
:103080007C040E28C2F200040CD120684FF080416D
:1030900001F060FD0246D8F800000221642322609E
:1030A000FFF770FFFFF7CEFE06280CD120684FF027
:1030B000404101F04FFD0246D8F800000221642390
:1030C0002260FFF75FFFFFF7BDFE40F2A04640F22F
:1030D000B0470A28C2F20006C2F200072AD140F225
:1030E000C044D8F80000C2F2000401212246FFF7D4
:1030F00019FF052000F0E6FE40F2C445D8F80000B4
:10310000C2F2000502212A46FFF70CFF052000F05D
:10311000D9FE40F2A051C2F2000120680A782B6863
:1031200046F82200501C47F82230C2B2032A88BF5A
:1031300000200870FFF786FE102847D1D6E900046A
:10314000D6E9021501F006FD06462046294601F0A3
:1031500001FD0146304601F0FDFC4FF07A5101F0CF
:1031600037FF044640F28000C2F200000460D7E955
:103170000005D7E9021601F0EDFC07462846314666
:1031800001F0E8FC0146384601F0E4FC4FF07A51CA
:1031900001F01EFF40F28405D8F80010C2F20005CD
:1031A00028600846012122466423FFF7EBFE052034
:1031B00000F088FED8F800002A6802216423FFF797
:1031C000E1FE0520BDE8F04100F07CBEBDE8F081E5
:1031D00080B540F20000C2F200000078012818BF5C
:1031E00080BDFFF72FFE10281AD100200121FEF725
:1031F0007FF901200221FEF77BF902200321FEF76F
:1032000077F903200021FEF773F940F25850C2F21B
:10321000000004A101223223BDE88040FFF766BC14
:1032200080BD00BF3100000010B540F20000C2F2C6
:1032300000000078032832D1FFF704FE102808D1DF
:1032400040F25850C2F2000015A101223223FFF7CC
:103250004DFCFFF7F7FD40F288040528C2F2000498
:103260000AD1207840B940F25850C2F200000DA1B6
:1032700001223223FFF73AFCFFF7E4FD062818BFCE
:1032800010BD207801280AD140F25850C2F2000047
:1032900005A101223223BDE81040FFF727BC10BD75
:1032A000300000003200000033000000B0B540F2F2
:1032B0000004C2F20004207809281BD140F208055E
:1032C000C2F20005286840F27802C2F20002012131
:1032D000FFF728FE0A2000F0F5FD286840F27C0286
:1032E000C2F200020221FFF71DFE0A2000F0EAFDF3
:1032F00000202070FFF7A6FD012818BFB0BD207880
:103300000130207000F008F82078042804BF002065
:103310002070B0BDFEE7000080B540F29C00C2F214
:1033200000004FF48061FDF712F880BD70B540F6E3
:1033300000040546C4F20104002600BF05FA06F0A9
:10334000C0B2C20920462021FEF7B8FA204610215B
:103350000122FEF7B3FA204610210022FEF7AEFA52
:103360000136082EEAD1204610210122FEF7A6FAE6
:10337000204610210022BDE87040FEF79FBA0000F1
:10338000B0B540F60004C4F2010420461021012229
:10339000FEF794FA204620210122FEF78FFAAE2094
:1033A00000F072FBD52000F06FFB802000F06CFB7A
:1033B000A82000F069FB3F2000F066FBD32000F05E
:1033C00063FB0020002500F05FFB402000F05CFB69
:1033D000A12000F059FBC82000F056FBDA2000F0D5
:1033E00053FB122000F050FB812000F04DFBCF205A
:1033F00000F04AFBD92000F047FBF12000F044FB2D
:10340000DB2000F041FB302000F03EFBA42000F068
:103410003BFBA62000F038FB8D2000F035FB14208C
:1034200000F032FBAF2000F02FFB40F29C04C2F210
:10343000000420464FF48061FCF789FF45F0B0009E
:10344000C0B200F021FB102000F01EFB002000F0B5
:103450001BFB2046802100F065FB0135082D04F19F
:103460008004EBD1B0BD0000F0B5C1B001AF14468F
:103470000D46064646AA384619460092FCF710FF4C
:10348000304629463A46234600F098F841B0F0BD50
:103490002DE9F04F84B0CDE9020293B3DDE90220BB
:1034A00003EB010900EB020B4FF0010808460F4641
:1034B00004E000BF013738B2814522DD039A002ABB
:1034C000F8D007F0070440F29C02029E08FA04F4C8
:1034D000C008C2F200026FEA040A02EBC0143046D0
:1034E00004E000BF013630B28345E3DDBDB23F2DBD
:1034F000F8D8B5B27F2DF5D8255C05EA0A05255424
:10350000F0E7581E00EB5070C010019001EB5170B5
:10351000C31020F0070003EBE1320823081A03EA86
:1035200011310844009282B2C0F108001FFA80FBFA
:1035300000204FF0000806E008F1010801995FFA49
:1035400088F0814236DB03990029F5D0039D0D9B5D
:103550005FFA88F1009E05FB013740F29C0331447D
:10356000C2F2000306EB000A029803EBC1130AF152
:10357000010904E00137013D00F10100DCD07F28A2
:10358000F8D8BAF1070F08D897F800C013F800E090
:103590000CFA02F646EA0E061E54B9F1070FE9D8F6
:1035A0003E78191891F8804026FA0BF6264381F8E8
:1035B0008060DFE704B0BDE8F08F00002DE9F04F38
:1035C00089B0154612780690002A00F0E3800DF1CC
:1035D0001F000E46011D0191C11C45F2723B1C46A5
:1035E0000291811C0130C0F6000B4FF0250A4FF00C
:1035F00000084FF0000903910490059650B200288E
:1036000013D502F0E001C02909F1010113D002F045
:10361000F003E02B1CD002F0F803F02B2ED088B280
:103620002A5C8946002AE9D1B4E0049909F101092C
:103630008DF81F203EE089B2695C8DF81F200029BB
:1036400000F0A8808DF82010039909F1020931E0FB
:1036500089B2695C8DF81F20002900F09B8009F178
:1036600002039BB2EB5C8DF82010002B00F09280DF
:10367000029909F103098DF821301BE089B2695CD8
:103680008DF81F20002900F0858009F102039BB20C
:10369000EB5C8DF82010002B7CD009F1030189B27E
:1036A000695C8DF82130002974D08DF822100199C1
:1036B00009F10409B0F1FF3F4FF00000087012DD7E
:1036C0000698062C404400B225D0082C33D145F290
:1036D000AF61C0F6000101EB0211A1F500773146A0
:1036E0000822102324E09BF80000264658B300244B
:1036F0005F4600BF38460DF11F01FCF74FFE18B3BF
:103700000134A0B200FB0AF11BF8011000FB0AB75C
:103710000029EFD118E002EB420145F27542C0F6F4
:10372000000202EB4101A1F1C00731460622082345
:103730000097FFF7ADFEA0441FFA89F02A5C002A2B
:103740007FF45CAF26E05F463446062E0FD0059E20
:10375000082CF1D106980537404400B231461022BA
:1037600010230097FFF794FE08F11008E4E706988D
:1037700045F27541059E4044C0F6000101F1BA07CB
:1037800000B23146062208230097FFF781FE08F1B8
:103790000608D1E709B0BDE8F08F0000B0B540F2EF
:1037A0009C040025C2F2000445F0B000C0B200F055
:1037B0006BF9102000F068F9002000F065F9204650
:1037C000802100F0AFF90135082D04F18004EBD120
:1037D000B0BD00002DE9F04383B040F20008C2F212
:1037E000000898F80000002840F09A8040F2A049B4
:1037F000C2F20009D9F8000001F080F945F6D04680
:10380000C0F6000604460D4601200121062233467B
:10381000CDE90045FFF728FE40F2B047C2F20007AD
:10382000386801F06BF905460C463020012106226C
:103830003346CDE90054FFF717FED9F8040001F034
:103840005DF905460C4601200A2106223346CDE9E2
:103850000054FFF709FE786801F050F905460C4660
:1038600030200A2106223346CDE90054FFF7FCFD43
:10387000D9F8080001F042F905460C460120142150
:1038800006223346CDE90054FFF7EEFDB86801F09B
:1038900035F905460C463020142106223346CDE981
:1038A0000054FFF7E1FDD9F80C0001F027F90546B7
:1038B0000C4601201E2106223346CDE90054FFF7B5
:1038C000D3FDF86801F01AF905460C4630201E2198
:1038D00006223346CDE90054FFF7C6FD40F27800DA
:1038E000C2F20000006801F009F905460C4601200B
:1038F000282106223346CDE90054FFF7B5FD40F2FA
:103900007C00C2F20000006801F0F8F805460C46A1
:103910003020282106223346CDE90054FFF7A4FDCC
:1039200098F80000012840F09A8040F2A049C2F2C5
:103930000009D9F8000001F0E1F845F6D044C0F6DE
:10394000000406460D460120012106222346CDE94A
:103950000065FFF789FD40F2B047C2F20007386802
:1039600001F0CCF806460D46302001210622234600
:10397000CDE90065FFF778FDD9F8040001F0BEF845
:1039800006460D4601200A2106222346CDE90065A0
:10399000FFF76AFD786801F0B1F806460D46302061
:1039A0000A2106222346CDE90065FFF75DFDD9F81F
:1039B000080001F0A3F806460D4601201421062256
:1039C0002346CDE90065FFF74FFDB86801F096F892
:1039D00006460D463020142106222346CDE9006517
:1039E000FFF742FDD9F80C0001F088F806460D46B5
:1039F00001201E2106222346CDE90065FFF734FD94
:103A0000F86801F07BF806460D4630201E2106229C
:103A10002346CDE90065FFF727FD40F27800C2F2AA
:103A20000000006801F06AF806460D4601202821D2
:103A300006222346CDE90065FFF716FD40F27C0023
:103A4000C2F20000006801F059F806460D46302029
:103A5000282106222346CDE90065FFF705FD98F8E9
:103A6000007007A35A20002106220097FFF7FCFCF4
:103A7000FFF794FE0A2003B0BDE8F04300F0F6B96A
:103A80004D6F64653A25640070B540F60004C4F2D9
:103A900001040546204620210122FDF70FFF2046A4
:103AA00010210122FDF70AFF204620210022FDF708
:103AB00005FF204610210022FDF700FF7820FFF7C8
:103AC00035FC0826204620210022FDF7F7FE20467F
:103AD00010210122FDF7F2FE204610210022FDF701
:103AE000EDFE013EEED1204610210122FDF7E6FE5B
:103AF000204610210022FDF7E1FE2846FFF716FCC4
:103B0000204620210022FDF7D9FE20461021012267
:103B1000FDF7D4FE204620210122BDE87040FDF7CC
:103B2000CDBE000070B540F60004C4F201040D469D
:103B30000646204620210122FDF7C0FE2046102126
:103B40000122FDF7BBFE204620210022FDF7B6FE34
:103B5000204610210022FDF7B1FE7820FFF7E6FB9A
:103B60004020FFF7E3FB3DB1013E00BF16F8010F17
:103B7000FFF7DCFB013DF9D1204620210022FDF7B3
:103B80009DFE204610210122FDF798FE20462021AF
:103B90000122BDE87040FDF791BE000070470000B3
:103BA0008188C2888A422FBF501A0089511A08445E
:103BB00080B270478188B0F806C08C4504D2028973
:103BC000ACEB01031A4401E0ACEB0102F0B51FFAC3
:103BD00082FEBEF1030F1DD3ACEB010200230224D1
:103BE0000DE000BF0D1906890135B5FBF6F707FB9F
:103BF00016550668755D0134A6452B440DD0154653
:103C00008C453CBF05891544A6B2ADB2B542E9D892
:103C10000025F0E7FF20C0B2F0BDD843C0B2F0BD30
:103C20008288C388934204D2B0F808C09B1A6344C8
:103C300000E09B1A9BB28B429CBF0020704711444E
:103C400002890131B1FBF2F3006803FB1211405C01
:103C5000704700004FF0000C0131C0E9002C8AB21F
:103C60008A42018118BF7047002200210368013198
:103C700003F802C003890AB29A42F7DB70470000DA
:103C80008288C1881346B0F808C08A4288BFA3EB77
:103C90000C039BB299424FF0000109D00132B2FBF4
:103CA000FCF303FB1C2203688280985C9954014654
:103CB0000846704710B58388B0F806E0B0F808C031
:103CC000AEEB030462469E4528BF00221444013433
:103CD000A4B2A4450CD19A1A92B2964508D05A1CA7
:103CE000B2FBFCF3002403FB1C22036882809C547B
:103CF000C28803890132B2FBF3F404FB1322036888
:103D0000C280995410BD00008288C1881346B0F863
:103D100008C08A4288BFA3EB0C039BB299424FF0C4
:103D2000000109D00132B2FBFCF303FB1C22036843
:103D30008280985C995401460846704710B5838884
:103D4000B0F806E0B0F808C0AEEB030462469E454A
:103D500028BF002214440134A4B2A4450CD19A1AFD
:103D600092B2964508D05A1CB2FBFCF3002403FB28
:103D70001C22036882809C54C28803890132B2FBF2
:103D8000F3F404FB13220368C280995410BD0000B1
:103D9000002A08BF7047F0B54FF0000C0DE000BFDF
:103DA000C38804890133B3FBF4F5013A05FB1433EE
:103DB0000468C38004F803E01CD08488C58800260A
:103DC0002F1B11F801EB0389A54238BF1E4637446B
:103DD0000137BFB2BB42E3D1A61BB6B2B542DFD0BA
:103DE0000134B4FBF3F505FB13430468838004F846
:103DF00003C0D5E7BDE8F04070470000F0B581B0E2
:103E00004FF0000C0DF1020E0023ADF802100CE093
:103E1000C28804890132B2FBF4F5013305FB142298
:103E20000468022BC280A1541CD08488C588002657
:103E30002F1B1EF803100289A54238BF16463744CF
:103E40000137BFB2BA42E3D1A61BB6B2B542DFD04A
:103E50000134B4FBF2F505FB12420468828004F8D9
:103E600002C0D5E701B0F0BD7047000081B00090FE
:103E7000009840F2A451C2F2000108604EF2100016
:103E8000CEF20000016841F00101016001B070470D
:103E900040F2A450C2F20000002101604EF2100076
:103EA000CEF20000016821F00101016070470000BE
:103EB00040F2A450C2F200000068B0FA80F040095D
:103EC0007047000081B00090009A40F2A4504EF27A
:103ED0001001C2F20000CEF2000102600A6842F056
:103EE00001020A600268002AFCD1086820F0010083
:103EF000086001B07047000040F2A450C2F2000018
:103F0000016800290EBF0021016801390160FDF739
:103F1000E1BC000040F20400C2F20000006844F678
:103F2000D351C1F26201A0FB01014FF0FF3000EB61
:103F30009110B0F1807F13D24EF21001CEF2000149
:103F400048604EF62350CEF20000F02202700020AE
:103F5000886007200860086820F00100086070474A
:103F6000FEE700007047000040F2C840C2F20000C7
:103F7000FEF7FAB9406A0021C185C184FEF7A4BAF0
:103F800090F84210222918BF70478268B2F5805F0E
:103F900002D1016900294AD0816AB2F5805F07D059
:103FA0000AB9026922B10268526802F07F0201E098
:103FB000026852680A70816A01318162C18D0139DB
:103FC0000A04C18500D070470168CA6822F0200247
:103FD000CA60CA6822F48072CA604A6922F001028B
:103FE0004A61202180F8421000214163026B012ABE
:103FF00018BFFEF7FBBC81B0016300BF016851E848
:10400000031F026821F0100142E80313002BF5D1D1
:1040100001680A68D20606D5002200920A6800925A
:10402000496800910099818D01B0FEF74BBA016893
:10403000826A49686FF35F2122F8021B8262BDE742
:1040400040F21050C2F20000FEF740BA40F2585061
:10405000C2F20000FEF73ABA2DE9F04F91B00546E2
:10406000002764200C4681F83870FFF7FFFE04F14A
:1040700005084FF0020B4FF0040A4FF00809002624
:10408000FFF716FF00285CD1A868FFF789FD00281C
:10409000F6D094F838000138072832D8DFE800F06D
:1040A0000428311C310D3156A868FFF72DFEFF287A
:1040B000A07072D084F838B0E2E7A868FFF724FE59
:1040C000E278F9B20137FBB2023A9A4208F80100ED
:1040D00008BF84F83890D3E7A868FFF715FEE178A9
:1040E00020710620022908BF082084F83800C7E79D
:1040F000A868FFF709FE2E28E07052D284F838A095
:10410000BEE7B0B2FF280BD000284FF00006B7D1B1
:10411000A868FFF7F9FD0646FF2818BF0026AFE79D
:10412000A868FFF7F1FD0002FF304FF2FF5188420F
:104130004FF00006A4D10121208084F838100646F3
:104140009EE70220C0B211B0BDE8F08FA868FFF76B
:10415000DBFD94F8381084F8370041F010000EAD04
:1041600084F838000DF1050228463221FFF772FD70
:1041700020462946FEF738FD2846FFF711FD013895
:1041800081B22846FFF74CFD94F837500446FFF7FC
:104190007FFE601B18BF0620D4E7FFF779FE0420DE
:1041A000D0E7FFF775FE0520CCE70000FEE7000032
:1041B00070B540F2AC5640F2105040F6B414C2F262
:1041C0000006C2F20000C2F2000440F2BC7230608D
:1041D000C2F2000220464FF4FA71FFF73BFD40F2B5
:1041E000B075C2F2000540F2B852C2F20002284691
:1041F0004FF4FA71FFF72EFDC6E9014570BD0000CE
:1042000090B0FDF775FB06AC20462821FCF79FF81F
:10421000012006900A904FF4E01000254FF4803101
:1042200002260F9020460595CDE90355CDE90155AD
:10423000CDE90715CDE90D61FDF708FD18B1EFF3E4
:10424000108072B6FEE70F20CDE901064FF48060C2
:10425000CDE9040501A802210395FDF7F5FB20B186
:10426000EFF3108072B600BFFEE7FEF717FDFEF712
:10427000ADFDFEF76FFDFEF7C7FDFFF74BFEFFF745
:1042800097FFFFF77DF84FF47A70FFF71BFE40F2BF
:10429000C840C2F20000FDF761FF40F2105040F24A
:1042A000A851C2F20000C2F200010122FEF774FB25
:1042B00040F2585040F29C41C2F20000C2F20001AC
:1042C0000122FEF769FB00BFFDF704F9FCE75FEA96
:1042D000400C08BF91F0000F4FEA8C234FEAC12237
:1042E00043EA51514FEA1C5018BF00F5F0404FEA25
:1042F000300018BF41F000415FEA6C5C00F029809B
:10430000BCF1FF3F08BF40F080407047130C06BF70
:1043100012044FF0100C4FF0000C130E04BF1202E9
:104320000CF1080C130F04BF12010CF1040C930FD5
:1043300004BF92000CF1020CD30F04BF52000CF129
:10434000010C11464FF00002A0F11F00A0EB0C0081
:10435000704711F0004F08BF704731F000413FF443
:10436000D5AF0B0C06BF09044FF0100C4FF0000C3A
:104370000B0E04BF09020CF1080C0B0F04BF09015E
:104380000CF1040C8B0F04BF89000CF1020CCB0F55
:1043900004BF49000CF1010CCCF1200322FA03F315
:1043A00041EA030102FA0CF2A0EB0C0000F101005B
:1043B0007047000023F07F4720F07F4C80EA030025
:1043C00000F00040ACEB070303F57C5303F1FF035F
:1043D0002DE9804909B44FEA144324EA03484FEA1F
:1043E000154B25EA0B4E0FF2042606EB13273E78F9
:1043F00003FB0667C7F5000707FB06F64FEAD6463C
:1044000006F102064FEA543707FB066CCCF1005C5C
:104410004FEA1C472CEA074C0CFB06F507FB06F499
:1044200004EB15464FEA961649085FEA320234BF9C
:1044300000204FF000404FEAD13706FB07FC4FEA5F
:104440001C4C0CFB0BF7D21B03FB0CF761EB0701B9
:104450000CFB0EF7B0EB074072EB17420CFB08F7B2
:1044600034BFA2EB0742B2EB074261EB17414FEAC0
:104470000C444FEA910706FB07FC4FEA1C4C0CFB6F
:104480000BF7B0EBC74072EB573203FB0CF734BFAE
:10449000A2EBC742B2EBC74261EB57310CFB0EF700
:1044A000B0EBC70072EB57720CFB08F734BFA2EBFE
:1044B000C702B2EBC70261EB57714FEA816141EA73
:1044C00092114FEA826242EA90124FEA806004EB56
:1044D000CC04039F4FEAD13706FB07FC4FEA1C4C84
:1044E0000CFB0BF7D21B03FB0CF761EB07010CFB7A
:1044F0000EF7B0EB074072EB17420CFB08F734BF26
:10450000A2EB0742B2EB074261EB17414FEA8C5531
:1045100004EB9C244FEA910706FB07FC4FEA1C4C76
:104520000CFB0BF7B0EBC74072EB573203FB0CF7F9
:1045300034BFA2EBC742B2EBC74261EB57310CFB71
:104540000EF7B0EBC70072EB57720CFB08F734BFE5
:10455000A2EBC702B2EBC70261EB57714FEA816170
:1045600041EA92114FEA826242EA90124FEA806079
:1045700015EB4C2544F100044FEAD13706FB07FC4C
:104580004FEA1C4C0CFB0BF7D21B03FB0CF761EB47
:1045900007010CFB0EF7B0EB074072EB17420CFB68
:1045A00008F734BFA2EB0742B2EB074261EB1741B9
:1045B0004FEA813141EA92414FEA823242EA904227
:1045C0004FEA80304FEA0C7615EB1C1544F10004DD
:1045D00048EA03434EEA0B484FF0000EB2EB080CDA
:1045E00071EB030724BF624639464EEB0E0E4FF0C7
:1045F000000B0018524149414BEB0B0BB2EB080C7E
:1046000071EB03077BF1000B24BF624639464EEB8A
:104610000E0E4FF0000B0018524149414BEB0B0BB3
:10462000B2EB080C71EB03077BF1000B24BF624671
:1046300039464EEB0E0E51EA020718BF46F001064E
:1046400016EB0E7655F1000254F1000103D5BDE8DA
:104650008901BDE80088BDE88901BDE80048B619B8
:10466000524141EB0101A3F10103704780807F7E3D
:104670007D7C7B7A797877767675747372717170D8
:104680006F6E6E6D6C6C6B6A6A696868676666658A
:104690006464636362616160605F5F5E5E5D5D5C18
:1046A0005C5B5B5A5A595958585757565655555589
:1046B0005454535352525251515050504F4F4F4EE9
:1046C0004E4D4D4D4C4C4C4B4B4B4A4A4A49494937
:1046D0004848484747474746464645454544444479
:1046E0004443434343424242424141419C46002BA2
:1046F00030D477002BD04FEA37071CB503B44FF006
:1047000010004FF01001BAF1000F06D0BCF1000FFD
:10471000DCBF40F0080040F008014FF000000FBC83
:10472000BDE810400BF1010BBBF1010F08BF5FEAC0
:10473000170722BF12F1010211F101014FF00041F0
:1047400043F1000300F0004043EA00007047F9D352
:104750005708D0E746EA06464FEA164613F1400FDF
:104760001FDD13F1200FDFBF16430A46002120335F
:104770005B42BED0C3F1200746EA06464FEA164622
:1047800002FA07F746EA070622FA03F2C3F1200706
:1047900001FA07F742EA070221FA03F14FF000039A
:1047A000A7E746EA020646EA06464FEA164646EA02
:1047B0000106BCBF46EA0646360C4FF000034FF038
:1047C00000024FF0000194E72DE9804C70B49A4646
:1047D000934691E8380007C831EA400C48BF34EAF4
:1047E000430C03D5FFF7E6FDFFF780FFF0BCBDE803
:1047F000008C2DE9804C70B49A46934691E83800BD
:1048000007C810F0804F08BF13F0804F03D100F0AD
:1048100005F8FFF76BFFF0BCBDE8008C20F07F4788
:1048200023F07F4C80EA030000F0004007EB0C030C
:10483000A3F57C53A3F1FE0392F0000F00F0B380C8
:1048400095F0000F00F077802DE901494FEA114003
:1048500021EA00484FEA144624EA064700FB06FC1A
:1048600008FB06F607FB08F818EB06484CEB164C5D
:1048700000FB07F718EB07484CEB17404FEA124BC9
:1048800022EA0B4E4FEA154625EA06470BFB06FCCB
:104890000EFB06F607FB0EFE1EEB064E4CEB164C0F
:1048A0000BFB07F71EEB074E4CEB174B18EB0B08F7
:1048B00040F1000018EB0E0B58EB000840F100002F
:1048C0008F1A4FF000014FF000063CBFC943661B32
:1048D00014BFB5EB040C00213CBFC943F61B4FEAE3
:1048E000174427EA04454FEA1C472CEA074C04FB0F
:1048F000076205FB07F70CFB05F616EB074642EBD4
:10490000174204FB0CFC16EB0C4642EB1C421BEB63
:10491000060658EB020241414EEA8E0E46EA9E061A
:1049200001D5BDE80189B619524141EB0101A3F15E
:104930000103BDE801894FEA144524EA05464FEA20
:10494000114721EA074C05FB07F406FB07F70CFBB0
:1049500006F111EB074144EB174405FB0CFC11EB8E
:104960000C4144EB1C444FEA124722EA074C05FB7A
:1049700007F206FB07F70CFB06F616EB074642EBC1
:10498000174205FB0CFC16EB0C4642EB1C456A1863
:1049900054F1000148BF7047B619524141EB010183
:1049A000A3F10103704795F0000F37D04FEA114291
:1049B00021EA02464FEA144724EA074C02FB07F1BA
:1049C00006FB07F70CFB06F414EB074441EB174119
:1049D00002FB0CFC14EB0C4441EB1C414FEA154765
:1049E00025EA074C02FB07F506FB07F70CFB06F66A
:1049F00016EB074645EB174502FB0CFC16EB0C4685
:104A000045EB1C42121951F1000148BF7047B6191D
:104A1000524141EB0101A3F1010370474FEA1445F4
:104A200024EA05464FEA114721EA074C05FB07F146
:104A300006FB07F70CFB06F212EB074241EB1741AE
:104A400005FB0CFC12EB0C4251EB1C414FF0000635
:104A500048BF7047921841EB0101A3F10103704771
:104A6000490050EAC12018BF04204A0D18BF40F089
:104A7000010040F2FF72B2EB515F08BF40F002004C
:104A8000012808BF0520704730380A2801D20120CC
:104A9000704700207047000010B500290AD0087840
:104AA000002807D005487844FBF778FC002801D09F
:104AB000002010BD0248784410BD000052120000D2
:104AC0004A12000010B500290AD00878002807D043
:104AD00005487844FBF762FC002801D0002010BD97
:104AE0000248784410BD0000421200003A12000053
:104AF0000808A0F500114FEA3101704743004FEA62
:104B0000D30C4FEA3C0C43401FBF40070CF16051EF
:104B100013F0FE4F70471CF0006F03D10CF0004102
:104B2000002070470CF0004343EA507040EACC008C
:104B300010B500F0CEFA00BF000000924FEA00016D
:104B4000FFF7D6BF4FF00041A1F500214FF0000064
:104B50007047000090EA010F48BF81F0004100F16A
:104B60000A83421A3CBF801A89184FEAD052A2EB3E
:104B7000D1534FF07F4C1CEA410F18BF9CEA026FE3
:104B800000F03B804FF0004C4CEA00204CEA012141
:104B900021FA03FC10EB0C0C1ED202F1FF325FEA8B
:104BA0001C2040EBC25038BF70471CF07F0F4FEA0B
:104BB000400C18BFBCF17F4F38BF7047C3F12003D2
:104BC000994008BF20F00100BCF17F4F38BF70470B
:104BD000A0F1C04000F0C3BA4FEA3C00000A40EB2D
:104BE000C25028BF1CF0FF0F4FEA400CE6D018BFA0
:104BF000BCF17F4F38BF7047EAE79CEA026F05D0EF
:104C000010EA5C0F08BF00F00040704710B500F0DC
:104C100060FA00BF64FBBE3E10B500F0F5F80CBFB3
:104C20000120002010BD10B500F0EEF814BF0120E7
:104C3000002010BD10B500F063F98CBF01200020EA
:104C400010BD10B500F05CF92CBF0120002010BD94
:104C500010B500F089F994BF0120002010BD10B5F7
:104C600000F082F934BF0120002010BD401058BF71
:104C7000C0F14040491058BFC1F140418142EFF3BB
:104C8000008070474FF47F0C1CEAD0121EBF1CEA54
:104C9000D11392EA0C0F93EA0C0F00F0858090EA92
:104CA000010F48BF42F4807240F4000C41F4000050
:104CB0002CF07F4120F07F4000B5A2EB030281423F
:104CC0000FF2081CACEB504E9EF800E0C0F1000063
:104CD0004FEA4E0E00FB0EFC38BF49004FEA2C1C79
:104CE0000CFB0EF34FEACE1E0EEB635E4FEA112C67
:104CF0000EFB0CFC4FEAC1214FEA1C5300FB0311D1
:104D000002F5FA024FEA112C0EFB0CFC4FEA0131BE
:104D10004FEADC4C00FB0C1142EB2242C14228BF9F
:104D200009184CEB03335DF804EB10EB410143EB46
:104D3000C250B2F57C0F38BF704729D512F0F00F82
:104D40001CBF00F1C04000F000407047008182832A
:104D50008485868788898B8C8D8E8F91929395968A
:104D600097999A9C9D9FA0A2A3A5A7A8AAACAEB014
:104D7000B2B3B5B7B9BCBEC0C2C5C7C9CCCED1D419
:104D8000D7D9DCDFE2E6E9ECF0F3F7FAFE00000049
:104D90004FEA400C0CF1807CBCF17E4F28BF70477D
:104DA000B0F1C04000F0DBB90CEAD11390EA010F7A
:104DB00048BF42F48072624538BF634507D213F49E
:104DC0007F0F16D080EA010000F00040704710B558
:104DD00000F07FF9097EFC3E00F005B880EA010092
:104DE00000F00040704780EA010000F0004000F051
:104DF000B6B912F47F0F04BF0248704780EA010081
:104E000000F0ADB90000C07F50EA010C00F1138042
:104E10001CF5000F58BFBCF5000F01D48842704745
:104E200007D710F5000F58BF11F5000F15D48842B1
:104E30007047894270471CF5000F04D5BCF5000F80
:104E4000F7D5814270474FF0807C1CEB400F38BF94
:104E50001CEB410F01D28142704710B500F039F9C7
:104E6000922449004FF000504FF08051FFF7FEBEF2
:104E700041000B0ED3F19E0208D950F400034FEA13
:104E8000032323FA02F048BF4042704710B500F0F8
:104E900020F900BF49922480002070476FF0004243
:104EA00082EA20007047000010F0004148BF4042F5
:104EB000B0FA80F310FA03F2C3F19D030BD051EA6C
:104EC000C35101EB1220530638BF704700F10100B7
:104ED00008BF20F001007047B0FA80F310FA03F227
:104EE000C3F19D030AD0D90501EB1220530638BF48
:104EF000704700F1010008BF20F00100704700007A
:104F000050EA010C00F113801CF5000F58BFBCF5EE
:104F1000000F01D48842704707D710F5000F58BF23
:104F200011F5000F15D488427047894270471CF56F
:104F3000000F04D5BCF5000FF7D5814270474FF044
:104F4000807C1CEB400F38BF1CEB410F01D281422B
:104F5000704710B500F0BDF8922449004FF0805022
:104F60004FF00051FFF782BE50EA010C00F11380B0
:104F70001CF5000F58BFBCF5000F01D488427047E4
:104F800007D710F5000F58BF11F5000F15D4884250
:104F90007047894270471CF5000F04D5BCF5000F1F
:104FA000F7D5814270474FF0807C1CEB400F38BF33
:104FB0001CEB410F01D28142704710B500F089F817
:104FC000922449004FF000504FF08051FFF74EBE41
:104FD0004FF47F0C1CEAD0121EBF1CEAD11392EAD8
:104FE0000C0F93EA0C0F00F0478090EA010F48BFC6
:104FF00042F480724FF0004C4CEA00204CEA012150
:1050000002EB0302A0FB0113A2F50002002918BF66
:1050100043F001035B0028BF4FEA330342EB224217
:105020005FEA132C4CEBC2502EBFBCEB436FB2F5C2
:105030007C0F70474FEA036CBCF1004F08BF20F0B3
:105040000100B2F57C0F38BF70470BD582F0FF022C
:1050500012F5803FC8BF704700F1C040D8BF00F0D4
:105060000040704700F5000C5FEA4C0C48BF7047E9
:10507000B0F1C04000F073B80CEAD11390EA010F10
:1050800048BF42F48072624538BF634504D280EA6B
:10509000010000F00040704710B500F01AF800BFA2
:1050A0008900013E00F007B800F009B85FEA410C42
:1050B0005FEA1C6C08D080EA010000F050B85FEA9B
:1050C000400C5FEA1C6CF6D14FF00040A0F5800068
:1050D00070470EF1020E2EF0030E5EF8044B2442D0
:1050E00004D44FEA4102B2F17F4F11D84FEA400396
:1050F000B3F17F4F0CD80ED14FEAD07C0CEB4C0CA7
:105100000CF1020CB2F17F4F08BF4CEBD17C04E0F4
:105110004FF0080C01E04FEAD17C0CEB4C0324FA71
:1051200003F404F00704B4F1040C06D20EEB840C73
:10513000BDE810404CF0010C6047DFE80CF00708B8
:1051400002024FF00040A0F5800010BD084642006A
:1051500018BFD2F1807288BF00F0004010BDFF215F
:1051600041EAD050C005704790EA010F48BF81F076
:1051700000413FF5F6AC421A04D882F00042A0EBA1
:10518000020011444FEAD052A2EBD1534FF07F4CB2
:105190001CEA410F18BF9CEA026F4AD04FF0004C46
:1051A0004CEA00204CEA012121FA03FCB0EB0C0C84
:1051B0000FD412F0FE0F36D05FEA4C001DD500125E
:1051C00040EBC25038BF70471CF03F0F18BF70470C
:1051D0000BE05FEA1C20A2F1010240EBC25038BF95
:1051E00070471CF07F0F18BF7047C3F12003994030
:1051F00014BF401E20F0010070474FEA12238008C0
:1052000008BF7047B0FA80FCA2EB0C02CCF1280C6E
:1052100060FA0CF093EA122F04BF00EBC250704703
:105220004FEAC3707047130A5FEADC1008BF70478B
:10523000F6E79CEA026F04D010EA5C0F08BF00207A
:10524000704710B5FFF745FF40DFF63E81F00040A4
:105250007047FBF741BDFBF775BE00000000000082
:1052600000000000303132333435363738394142AE
:1052700043444546403058003031323334353637B8
:105280003839616263646566403078000400000864
:105290000000000000000002000100001030313268
:1052A0003334353637383961626364656678700047
:1052B000303132333435363738394142434445464C
:1052C0005850000002400000000000A00000000054
:1052D00005400000000000C8000000000C40000075
:1052E0000000409C00000000194000000020BCBEEF
:1052F0000000000034400000BFC91B8E0000000405
:10530000B5400000504BCFD06607E2CF010000004F
:105310006C4100003E8251AADFEEA734010000007C
:10532000D9420000DCB5A0E23A301F97FFFFFFFF33
:10533000B4450000FD25A0C8E9A3C14FFFFFFFFF52
:10534000FF3F00000000008000000000FF3F000061
:1053500000000080000000000000000000000000CD
:10536000010203040607080900000000010203040B
:105370000102EFBC8C0000000000000000000000F3
:10538000000000000000000000583800000000008D
:1053900000000000000000E3808200000000000028
:1053A00000000000000000000000000000001824C1
:1053B000241800000000000000000000E4BDA00070
:1053C00000008060F8074020180F08C80808281857
:1053D00000010000FF00100C0340807F0001061850
:1053E00000E5A5BD00001010F01F10F000808282C3
:1053F000E2928A86800040221508166100004080F3
:105400007F0000000000E4B8960000202020FE206D
:1054100020FF202020FF20202020000000007F40CF
:105420004047444444474040400000E7958C00001A
:10543000000000FE929292FE929292FE0000000006
:1054400008080484621E010001FE0204040808002A
:105450000000000000FF01010131090909098971FB
:1054600001010101FFFF8080808080809681808023
:1054700080808080FF0000000000000000002F00FE
:105480000000000700070000147F147F1400242A86
:105490007F2A120023130864620036495522500007
:1054A000000007000000001C224100000041221CF7
:1054B000000014083E08140008083E080800000018
:1054C000A0600000080808080800006060000000F4
:1054D0002010080402003E5149453E0000427F4032
:1054E00000004261514946002141454B31001814EA
:1054F000127F10002745454539003C4A4949300094
:105500000171090503003649494936000649492910
:105510001E00003636000000005636000000081459
:105520002241000014141414140000412214080035
:105530000201510906003E4955592E007C121112F4
:105540007C007F49494936003E41414122007F416C
:1055500041221C007F49494941007F090909010096
:105560003E4149497A007F0808087F0000417F4199
:1055700000002040413F01007F08142241007F408D
:10558000404040007F020C027F007F0408107F0033
:105590003E4141413E007F09090906003E4151213B
:1055A0005E007F0919294600464949493100010139
:1055B0007F0101003F4040403F001F2040201F006E
:1055C0003F4038403F006314081463000708700828
:1055D0000700615149454300007F4141000002043A
:1055E000081020000041417F000004020102040075
:1055F0004040404040000001020400002054545448
:1056000078007F48444438003844444420003844FB
:1056100044487F00385454541800087E09010200A1
:1056200018A4A4A47C007F080404780000447D40F2
:1056300000004080847D00007F102844000000416D
:105640007F4000007C04180478007C080404780083
:10565000384444443800FC24242418001824241816
:10566000FC007C0804040800485454542000043F03
:10567000444020003C4040207C001C2040201C0076
:105680003C4030403C004428102844001CA0A0A00E
:105690007C004464544C440000087F41000000003A
:1056A0007F00000000417F08000008040810080087
:1056B00000000000000000000000000000000000EA
:1056C0000000F8000000000000003330000000007F
:1056D000160E00160E000000000000000000004042
:1056E000C07840C0784000043F04043F0404000038
:1056F0007088FC08300000001820FF211E0000F018
:1057000008F000E018000000211C031E211E00000C
:10571000F00888700000001E2123241927211000A2
:105720000000160E00000000000000000000000055
:105730000000E018040200000000071820400000EC
:10574000020418E00000000040201807000000409C
:105750004080F0804040000202010F010202000080
:105760000000F0000000000101011F010101000024
:105770000000000000000000B07000000000000009
:105780000000000000000000010101010101010012
:1057900000000000000000003030000000000000A9
:1057A000000000806018040060180601000000007E
:1057B000E010080810E000000F102020100F00007B
:1057C0001010F8000000000020203F202000000002
:1057D000700808088870000030282422213000005A
:1057E000300888884830000018202020110E000062
:1057F00000C02010F8000000070424243F2400000B
:10580000F80888880808000019212020110E0000DF
:10581000E0108888180000000F112020110E0000F1
:10582000380808C83808000000003F0000000000E9
:1058300070880808887000001C222121221C0000AA
:10584000E010080810E0000000312222110F0000D3
:105850000000C0C000000000000030300000000068
:105860000000C0C0000000000080B0700000000018
:1058700000804020100800000102040810200040B1
:10588000404040404040000404040404040400007C
:1058900008102040800000002010080402010000D1
:1058A0007048080808F0000000003036010000C011
:1058B00030C828E810E0000718272423140B000044
:1058C00000C038E0000000203C23020227382008F6
:1058D000F8888888700000203F202020110E00C02A
:1058E0003008080808380007182020201008000891
:1058F000F808080810E000203F202020100F0008C2
:10590000F88888E8081000203F202023201800088D
:10591000F88888E8081000203F200003000000C03D
:105920003008080838000007182020221E0200084E
:10593000F808000008F808203F210101213F20005D
:105940000808F8080800000020203F202000000080
:10595000000808F8080800C08080807F0000000868
:10596000F888C028180800203F20012638200008A9
:10597000F8080000000000203F2020202030000810
:10598000F8F800F8F80800203F003F003F2000082A
:10599000F830C00008F808203F200007183F00E05A
:1059A0001008080810E0000F10202020100F000839
:1059B000F808080808F000203F210101010000E07C
:1059C0001008080810E0000F18242438504F000871
:1059D000F8888888887000203F2000030C30200061
:1059E000708808080838000038202121221C00187F
:1059F0000808F8080818000000203F2000000008F0
:105A0000F808000008F808001F202020201F0008C8
:105A100078880000C83808000007380E010000F838
:105A20000800F80008F800033C0700073C030008E2
:105A30001868808068180820302C03032C30200858
:105A400038C800C83808000000203F2000000010BF
:105A5000080808C83808002038262120201800002F
:105A60000000FE020202000000007F4040400000F3
:105A70000C30C000000000000000010638C000002B
:105A8000020202FE000000004040407F00000000D3
:105A90002010080408102000000000000000000092
:105AA00000000000000000808080808080808000F6
:105AB00002040800000000000000000000000000D8
:105AC000008080808000000019242222223F2008CC
:105AD000F8008080000000003F112020110E00001F
